:1000000010308A0000280000593084008313000853
:10001000031918280130F800F701F70B0D28F80B29
:100020000C284A30F700F70B13281628800B0A28F3
:1000300008008E30F70083163508F8003408F90000
:10004000FA01F808031D2E287908F800F901083094
:10005000F702F808031D2E28F70136280310F81BB5
:100060003528F90DF80DF7032E28F8138312080030
:1000700083163108B8003508B806B81F44280311A4
:100080000310B11B031477283108B8003408B900F5
:100090003008B90203195228B81F77280308013A1B
:1000A000830077283508B9003108B90203195E28A2
:1000B000B81F77280308013A830077283608B9006B
:1000C0003208B90203196A28B81F77280308013AD1
:1000D000830077283708B9003308B9020319762856
:1000E000B81F77280308013A83007728031083128A
:1000F00008008316290803193F29B5002D080319A4
:100100003F29B502031C89287F30B50703183F2912
:100110008F288130B502031C3F2903193F29350878
:10012000F700F801F901FA01B4012A08B300B31786
:100130002B08B2002C08B1001930B5003008B1020C
:100140000318B2280130B2020318B228B302031810
:10015000B228B4020318B228B40AB30AB20A3008AB
:10016000B107E4282F08B2020318CD280130B302EA
:100170000318CD28B4020318CD28B40AB30A2F08F7
:10018000B2073008B107031CE428B20A031DE428B3
:10019000B30A031DE428B40AE4282E088038B30209
:1001A0000318E3280130B4020318E328B40A2E0828
:1001B0008038B3072F08B207031CC128B30A031DF8
:1001C000C128B40AC1287A14B50BE728F228031015
:1001D000B10DB20DB30DB40D0310FA0DF90DF80DFC
:1001E000B60D9E28361CFA280310F80CF90CFA0CF0
:1001F000B60CFD28F70303193F29B61B2629031067
:10020000B10DB20DB30DB40D3008B10203181229AF
:100210000130B20203181229B30203181229B402E2
:10022000031C35292F08B20203181D290130B3021F
:1002300003181D29B402031C35292E088038B30287
:10024000031826290130B402031C3529FA0A031DBC
:100250003529F90A031D3529F80A031D3529F70A3E
:1002600003193F29F80CF90CFA0C2A08B5002E08DE
:10027000B506B51F3D29F8174329F8134329F7019F
:10028000F801F901FA0183120800831630080319F6
:10029000B629B80034080319B629B8070318572936
:1002A0007F30B802031CB6290319B6295B298130B7
:1002B000B8070318B6293808F700F801F901FA0160
:1002C0003108BC00BC173208BB003308BA00183034
:1002D000B800B9013A1C84293708FA07031C7629AB
:1002E000F90A031D7629F80A0319B9173608F90720
:1002F000031C7D29F80A0319B9173508B200B21793
:100300003208F8070318B917B90DF80CF90CFA0CF4
:10031000BC0CBB0CBA0C0310B80B69290130F707F1
:100320000318B629F81B9B29BC0DFA0DF90DF80D21
:10033000F7030319B629BC1FAC29FA0A031DAC291F
:10034000F90A031DAC29F80A031DAC29F80CF90CB5
:10035000FA0CF70A0319B6293108B9003508B906AD
:10036000B91FB429F817BA29F813BA29F701F80107
:10037000F901FA01831208008030831CC229831618
:10038000B90683128316BE01BF013508BD003908C6
:10039000BD0634080319B02ABC00F7003808031959
:1003A000B92ABC020319552A031C132A3908C200B2
:1003B000C2173A08C1003B08C000BF010310C20CBD
:1003C000C10CC00CBF0CBC0BDD29BD1FEA293E14BB
:1003D000CD2A3E103C103E16B73084008313E22A2B
:1003E0003E12BD1BFD293C1C082AC20CC10CC00CCE
:1003F000BF0CF70A0319C82A082AC21B0B2A0310CC
:10040000BF0DC00DC10DC20DF7030319C82AFD2988
:100410003E17752A3E133508BD00BD1F112AC217AD
:10042000C12AC213C12A3808BC00F7003408BC0234
:100430003508C200C2173608C1003708C000BF0126
:100440000310C20CC10CC00CBF0CBC0B1F2ABD1F7B
:100450002C2ABE14CD2ABE103C10BE16BB30840020
:100460008313E22ABE12BD1B3F2A3C1C4A2AC20C3F
:10047000C10CC00CBF0CF70A0319C82A4A2AC21BB8
:100480004D2A0310BF0DC00DC10DC20DF703031996
:10049000C82A3F2ABE17752ABE133908BD00BD1FE2
:1004A000532AC217C12AC213C12A3908C200C2176F
:1004B0003A08C1003B08C000BD1F622AC2133E15A6
:1004C000CD2A3E11BF013C10B73084008313E22ACD
:1004D000BD1B8B2A3508BD003C1C752AC20CC10C03
:1004E000C00CBF0CF70A0319C82ABF1F862AC00A0E
:1004F000031D862AC10A031D862AC20A031D862AF5
:10050000C20CC10CC00CF70A0319C82A3E1B0A2AE8
:10051000BE1B4C2AAA2A8030C206C21F932ACD2AAB
:100520003908BD00A02A3508BD00C208031DA02A55
:10053000C108031DA02AC008031DA02AF701C12A73
:10054000C21BAA2A0310BF0DC00DC10DC20DF70BAF
:10055000A02AC82ABD1FAE2AC217C12AC213C12AA7
:100560003808F7003908C2003A08C1003B08C0004B
:10057000C12A3408F7003508C2003608C100370820
:10058000C0004208F8004108F9004008FA00002BBA
:10059000F701F801F901FA01002BBF01C009C109F7
:1005A000C209BF09BF0A031DDB2AC00A031DDB2ADB
:1005B000C10A0319C20A3E18E929BE182B2A3E199E
:1005C000612A902A0008C007031CEC2AC10A031DF7
:1005D000EC2AC20A03193C1484030008C107031C57
:1005E000F42AC20A03193C1484030008801F803ACD
:1005F000C20703183C143E1AF029BE1A322A682A90
:10060000831208008318072B6E3084008313F701D0
:10061000F801F901FA01EE01EF01F001F1016D08B5
:100620006C046B046A040319452B2030F20003109C
:10063000E60DE70DE80DE90DEE0DEF0DF00DF10DF6
:100640006D087102031D2E2B6C087002031D2E2BEA
:100650006B086F02031D2E2B6A086E02031C3F2BD2
:100660006A08EE026B08031C6B0FEF026C08031C98
:100670006C0FF0026D08031C6D0FF1020314F70DEF
:10068000F80DF90DFA0DF20B172B6E088000840A95
:100690006F088000840A70088000840A7108800056
:1006A00008000408DE005D08E0000319782B5C08F0
:1006B0008316B30083125B088316B20083125A08B4
:1006C0008316B100831259088316B000B701B60132
:1006D0002030B5008230B400831245217A08DC0056
:1006E0007908DB007808DA007708D900E00B572B8F
:1006F0005C08E9005B08E8005A08E7005908E600D2
:100700006608B63CE600FA016708EA00E71703103E
:10071000E70CE80CE90CFA0CF90CF80CF70CE60BFA
:10072000872BEA1F9E2BF709F809F909FA09F70A3E
:100730000319F80A0319F90A0319FA0A7A08DC00FE
:100740007908DB007808DA007708D900DC1FB52BC0
:10075000DE03DE16D909DA09DB09DC09D90A031937
:10076000DA0A0319DB0A0319DC0A3B30E5009A3088
:10077000E400CA30E300E2010A30E0005D0803193A
:10078000DE0A83145930840083135C08E9005B0897
:10079000E8005A08E7005908E6006508ED0064081B
:1007A000EC006308EB006208EA0002237808F7080F
:1007B000031DED2B5D0A60020319ED2B5E08031982
:1007C000EF2B0F3960020319E72B0318232CDE1BD4
:1007D000232C5E1BEF2B20301E2C2030DE05DE1E6E
:1007E000FE2BDE125D08031DDE037708DE002D30D0
:1007F0000C1EF82B99005E08F700DE015D08600210
:10080000031D0D2C7708DE002E300C1E052C9900E0
:100810005E08F7002030DE0500303030DE1E1E2C72
:10082000DE125D08031DDE037708DE002D300C1E8E
:10083000172C99005E08F700DE013030F7077708C3
:100840000C1E202C990083106508E9006408E8005C
:100850006308E7006208E600ED01EC01EB010A30F5
:10086000EA0002237A08E5007908E4007808E3004A
:100870007708E200E00BC12B08008E30F7008316EA
:100880003008F7023108F9003208F800F917F708C4
:100890000319552C0310F908031D512CF8080319EE
:1008A000552CF90CF80CF70B4A2CB11F5C2CF809ED
:1008B000F909F80A0319F90A8312080083162F10A0
:1008C0002308A8002208A7002108A6002008A500E8
:1008D0002308B3002208B2002108B1002008B000AC
:1008E000B701B601B501B40183123820031C7E2C78
:1008F00083162F142608803AA60083128316280830
:10090000B3002708B2002608B1002508B000B701DF
:10091000B601B5018E30B400831238200318922C32
:10092000031DAF2C83162808B3002708B200260841
:10093000B1002508B00083123D2479088316B50064
:100940007808B400831219207A088316AC0079085D
:10095000AB007808AA007708A900872D83128316B8
:100960002808B3002708B2002608B1002508B00007
:100970008030B7009630B6001830B5009630B4001D
:1009800083123820031C7E2D83162808B300270805
:10099000B2002608B1002508B000B701B601B501C4
:1009A0007030B400831245217A088316B3007908A9
:1009B000B2007808B1007708B00083123D247908AE
:1009C0008316AE007808AD002808B3002708B200EF
:1009D0002608B1002508B000B701B601B501703096
:1009E000B400831245217A088316B3007908B20057
:1009F0007808B1007708B0002E08B5002D08B400C3
:100A000083121920831483163308B7003208B60006
:100A10003108B5003008B4007A08BB007908BA0084
:100A20007808B9007708B8008312BC218316B30197
:100A3000B201B1018E30B0007A08B7007908B60073
:100A40007808B5007708B400831245217A08831628
:100A5000A8007908A7007808A6007708A5002E0846
:100A6000B5002D08B400831219208316B301B2011A
:100A7000B1018E30B0007A08B7007908B600780866
:100A8000B5007708B400831245217A088316AC00BC
:100A90007908AB007808AA007708A9002808B300F5
:100AA0002708B2002608B1002508B00083123D24B3
:100AB00079088316B5007808B400831219208310D2
:100AC00083162C08B7002B08B6002A08B5002908A1
:100AD000B4007A08BB007908BA007808B900770832
:100AE000B8008312BC217A088316AC007908AB00E9
:100AF0007808AA007708A900872D83128316280892
:100B0000AC002708AB002608AA002508A900280881
:100B1000B3002708B2002608B1002508B0008312F0
:100B20003D2479088316B5007808B4008312192093
:100B3000831483162808B7002708B6002608B500D6
:100B40002508B4007A08BB007908BA007808B90013
:100B50007708B8008312BC217A088316A8007908A8
:100B6000A7007808A6007708A5002F1CBA2D2A0830
:100B7000803AAA002808B3002708B2002608B1006E
:100B80002508B000B701B601B501B40183123820C1
:100B90000319072E83162F1CE92DA408031DE92D28
:100BA00083142C08B7002B08B6002A08B5002908C2
:100BB000B400BB01BA01B9017F30B8008312BC2177
:100BC0007A088316AC007908AB007808AA00770889
:100BD000A9002F18062E240B062E83102C08B70010
:100BE0002B08B6002A08B5002908B400BB01BA01D9
:100BF000B9017F30B8008312BC217A088316AC009B
:100C00007908AB007808AA007708A9008312831638
:100C10002308B3002208B2002108B1002008B00068
:100C2000B701B601B501B40183123820031D1E2E91
:100C30008316AC01AB01AA01A9018312831629080E
:100C4000F7002A08F8002B08F9002C08FA00831294
:100C500008006C088316B30083126B088316B20079
:100C600083126A088316B100831269088316B000E4
:100C7000B701B601B501B4018312382003193A2F28
:100C800068088316AC00831267088316AB008312D2
:100C900066088316AA00831265088316A9008312CA
:100CA0006C088316B00083126B088316AF008312A2
:100CB0006A088316AE00831269088316AD0083129A
:100CC00079207A08F4007908F3007808F2007708B0
:100CD000F10074088316B3007308B2007208B10003
:100CE0007108B000B701B601B501B4018312382014
:100CF000031CB92E68088316AC008312670883169C
:100D0000AB00831266088316AA0083126508831657
:100D1000A90083126C088316B00083126B08831637
:100D2000AF0083126A088316AE0083126908831627
:100D3000AD00831279207A08F4007908F30078086E
:100D4000F2007708F1007408FE007308FD007208D5
:100D5000FC007108FB007E088316A3007D08A2003A
:100D60007C08A1007B08A0000130A40083125E244F
:100D7000F62E68088316AC00831267088316AB0052
:100D8000831266088316AA00831265088316A900D9
:100D900083126C088316B00083126B088316AF00B1
:100DA00083126A088316AE00831269088316AD00A9
:100DB000831279207A08F4007908F3007808F200A9
:100DC0007708F1007408FE007308FD007208FC004B
:100DD0007108FB007E088316A3007D08A2007C0832
:100DE000A1007B08A000A40183125E247A08F00011
:100DF0007908EF007808EE007708ED007008831698
:100E0000B30083126F088316B20083126E08831634
:100E1000B10083126D088316B00083126C0883162C
:100E2000B70083126B088316B60083126A08831614
:100E3000B500831269088316B40083124521831418
:100E400068088316B700831267088316B6008312FA
:100E500066088316B500831265088316B4007A0805
:100E6000BB007908BA007808B9007708B800831287
:100E7000BC213A2F08008E30F70083162708F800AF
:100E80002608F900FA01A71F4A2FF809F909F90AFB
:100E90000319F80AF808031D572F7908F800F9011B
:100EA0000830F702F808031D572FF701602F0310D1
:100EB000F81B5E2FF90DF80DF703572FA71FF81336
:040EC0008312080091
:101000006C08F0006B08EF006A08EE006908ED005C
:1010100070088316B30083126F088316B200831220
:101020006E088316B10083126D088316B000B701F5
:10103000B601B5017F30B4008A11831238208A15B9
:101040000319FF298316A5016D30A400240884002C
:101050008313251883177E30800083147008B7002F
:1010600083126F088316B60083126E088316B500CC
:1010700083126D088316B400BB01BA01B9017F3039
:10108000B8008A118312BC218A157A088316A7003A
:101090007908A6007808A5007708A40083107008D6
:1010A000B70083126F088316B60083126E0883168A
:1010B000B50083126D088316B400BB01BA01B901F3
:1010C0007F30B8008A118312BC218A158316270845
:1010D000AC002608AB002508AA002408A9007A085D
:1010E000B0007908AF007808AE007708AD008A112B
:1010F000831279208A157A08F0007908EF007808C1
:10110000EE007708ED0070088316B30083126F08B5
:101110008316B20083126E088316B10083126D0825
:101120008316B0007008B70083126F088316B600EC
:1011300083126E088316B50083126D088316B400FF
:101140008A11831245218A157A088316A30079082B
:10115000A2007808A1007708A0009930B3004730BA
:10116000B2008A30B1007F30B0002308B7002208F7
:10117000B6002108B5002008B4008A118312452169
:101180008A157A088316A7007908A6007808A500B2
:101190007708A40083102708B7002608B6002508A2
:1011A000B5002408B400BB01BA01B9018030B80011
:1011B0008A118312BC218A157A08F4007908F30099
:1011C0007808F2007708F1004C308316B300F33052
:1011D000B2003A30B1007B30B0002308B7002208DB
:1011E000B6002108B5002008B4008A1183124521F9
:1011F0008A157A088316A7007908A6007808A50042
:101200007708A40083102708B7002608B600250831
:10121000B5002408B4002B30BB009D30BA00DF308D
:10122000B9007E30B8008A118312BC218A157A0871
:10123000FE007908FD007808FC007708FB007E08B6
:101240008316B3007D08B2007C08B1007B08B000B3
:101250002308B7002208B6002108B5002008B40012
:101260008A11831245218A157A088316A700790806
:10127000A6007808A5007708A40083102708B70007
:101280002608B6002508B5002408B400BB01BA0141
:10129000B9017F30B8008A118312BC218A157A08FF
:1012A000FE007908FD007808FC007708FB00700854
:1012B0008316B30083126F088316B20083126E0880
:1012C0008316B10083126D088316B0007408B7004E
:1012D0007308B6007208B5007108B4008A11831251
:1012E00045218A157A088316A7007908A600780890
:1012F000A5007708A4002708AC002608AB00250845
:10130000AA002408A9007E08B0007D08AF007C0870
:10131000AE007B08AD008A11831279208A157A0805
:10132000F4007908F3007808F2007708F1008316DA
:10133000A5016930A40024088400831325188317AD
:101340007E300002F500F51FBA297508003CA701A0
:10135000A600A61BA7038A1183123B278A157708CC
:10136000FB007808803AFC007908FD007A08FE004E
:10137000CB298316A7017508A600A61BA7038A110F
:1013800083123B278A157A08FE007908FD00780849
:10139000FC007708FB007E088316B3007D08B200CE
:1013A0007C08B1007B08B0001830B7007230B6007E
:1013B0003130B5007E30B4008A11831245218A1580
:1013C000831074088316B7007308B6007208B5005E
:1013D0007108B4007A08BB007908BA007808B9002F
:1013E0007708B8008A118312BC218A157A08F400A4
:1013F0007908F3007808F2007708F100032AF40175
:10140000F301F201F1017108F7007208F8007308A6
:10141000F9007408FA0008006C088316B300831200
:101420006B088316B20083126A088316B100831218
:1014300069088316B0003B30B700AA30B6003830D8
:10144000B5007F30B4008A11831245218A157A08CD
:101450008316B3007908B2007808B1007708B000AD
:101460008A1183123D248A157808F50076106C08DD
:10147000F0006B08EF006A08EE006908ED006C08E8
:101480008316B30083126B088316B20083126A08B6
:101490008316B100831269088316B000B701B60144
:1014A000B501B4018A11831238208A15031C5E2A03
:1014B0007614F509F50A6E08803AEE00F401F3019E
:1014C000F201F1018316A1017130A000200884000F
:1014D0008313211883177F30750780007008B300CD
:1014E00083126F088316B20083126E088316B10050
:1014F00083126D088316B0003B30B700AA30B600E7
:101500003830B5007F30B4008A11831245218A1526
:101510007A088316A3007908A2007808A10077084A
:10152000A000A7017508A600A61BA7038A118312B5
:101530003B278A15831483162308B7002208B600B8
:101540002108B5002008B4007A08BB007908BA0069
:101550007808B9007708B8008A118312BC218A156F
:101560007A08F0007908EF007808EE007708ED00BF
:101570007C308316B3008830B2005930B10072302D
:10158000B0007008B70083126F088316B60083128C
:101590006E088316B50083126D088316B4008A1195
:1015A000831245218A157A088316A3007908A200C0
:1015B0007808A1007708A00083102308B70022084C
:1015C000B6002108B5002008B400E030BB00973019
:1015D000BA002630B9007530B8008A118312BC21D8
:1015E0008A157A08FE007908FD007808FC00770863
:1015F000FB007E088316B3007D08B2007C08B100B2
:101600007B08B0007008B70083126F088316B6001D
:1016100083126E088316B50083126D088316B4001A
:101620008A11831245218A157A088316A300790846
:10163000A2007808A1007708A00083102308B70053
:101640002208B6002108B5002008B400C430BB0051
:101650001D30BA001E30B9007830B8008A118312EC
:10166000BC218A157A08FE007908FD007808FC0084
:101670007708FB007E088316B3007D08B2007C0863
:10168000B1007B08B0007008B70083126F088316A2
:10169000B60083126E088316B50083126D08831698
:1016A000B4008A11831245218A157A088316A30093
:1016B0007908A2007808A1007708A0008310230809
:1016C000B7002208B6002108B5002008B4005E303B
:1016D000BB005030BA006330B9007A30B8008A11CC
:1016E0008312BC218A157A08FE007908FD0078086B
:1016F000FC007708FB007E088316B3007D08B2006B
:101700007C08B1007B08B0007008B70083126F0836
:101710008316B60083126E088316B50083126D0817
:101720008316B4008A11831245218A157A0883161C
:10173000A3007908A2007808A1007708A000831010
:101740002308B7002208B6002108B5002008B4001D
:101750001A30BB00FE30BA007530B9007C30B800DA
:101760008A118312BC218A157A08FE007908FD00CF
:101770007808FC007708FB007E088316B3007D081C
:10178000B2007C08B1007B08B0007008B70083127B
:101790006F088316B60083126E088316B500831295
:1017A0006D088316B4008A11831245218A157A08C0
:1017B0008316A3007908A2007808A1007708A0008A
:1017C00083102308B7002208B6002108B5002008BE
:1017D000B4001830BB007230BA003130B9007E302E
:1017E000B8008A118312BC218A157A08FE00790894
:1017F000FD007808FC007708FB0070088316B30032
:1018000083126F088316B20083126E088316B1002C
:1018100083126D088316B0007E08B7007D08B600FD
:101820007C08B5007B08B4008A11831245218A1513
:1018300083108316B701B601B5017F30B4007A0872
:10184000BB007908BA007808B9007708B8008A1197
:101850008312BC218A1574088316B3007308B20082
:101860007208B1007108B0007A08B7007908B600B4
:101870007808B5007708B4008A11831245218A15CB
:101880007A08F4007908F3007808F2007708F1008C
:10189000761C642C8316AC01AB01AA017F30A90031
:1018A0007408B0007308AF007208AE007108AD0094
:1018B0008A11831279208A157A08F4007908F300D6
:1018C0007808F2007708F1007108F7007208F80054
:1018D0007308F9007408FA00080060088316B30062
:1018E00083125F088316B20083125E088316B1006C
:1018F00083125D088316B000B701B601B501B401CB
:101900008A11831238208A15031C882D6408E80088
:101910006308E7006208E6006108E500EC01EB01FE
:10192000EA017F30E9008A1129268A157A08E80041
:101930007908E7007808E6007708E500680883166C
:10194000B300831267088316B200831266088316F9
:10195000B100831265088316B000B701B601B50166
:10196000B4018A11831238208A15031D882D64085A
:10197000E8006308E7006208E6006108E500EC01A2
:10198000EB01EA018030E9008A1129268A157A08DC
:10199000E8007908E7007808E6007708E5006808BD
:1019A0008316B300831267088316B2008312660899
:1019B0008316B100831265088316B000B701B60123
:1019C000B501B4018A11831238208A15031D372D01
:1019D0005D08E5005E08803AE6005F08E700600801
:1019E000E800EC006708EB006608EA006508E9001B
:1019F00000207A08E8007908E7007808E600770810
:101A0000E50068088316B300831267088316B200E6
:101A1000831266088316B100831265088316B0002E
:101A2000831264088316B700831263088316B60016
:101A3000831262088316B500831261088316B4000E
:101A40008A11831245218A157A08E8007908E7008F
:101A50007808E6007708E5006808EC006708EB0006
:101A60006608EA006508E9000C22512E872D5D0802
:101A7000E5005E08803AE6005F08E7006008E800DD
:101A8000EC006708EB006608EA006508E900002042
:101A90007A08E8007908E7007808E6007708E500AA
:101AA00068088316B300831267088316B200831296
:101AB00066088316B100831265088316B00083128E
:101AC00064088316B700831263088316B600831276
:101AD00062088316B500831261088316B4008A1168
:101AE000831245218A157A08E8007908E70078080A
:101AF000E6007708E5006808EC006708EB00660878
:101B0000EA006508E9000C228030F806512E512EBB
:101B100060088316B30083125F088316B200831235
:101B20005E088316B10083125D088316B000B7010A
:101B3000B601B501B4018A11831238208A15031C3D
:101B4000D82D6408E8006308E7006208E600610831
:101B5000E500EC01EB01EA017F30E9008A1129265A
:101B60008A157A08E8007908E7007808E60077081F
:101B7000E50068088316B300831267088316B20075
:101B8000831266088316B100831265088316B000BD
:101B9000B701B601B501B4018A11831238208A1544
:101BA0000319D82DF701F801F901FA01512E512E30
:101BB00060088316B30083125F088316B200831295
:101BC0005E088316B10083125D088316B000B7016A
:101BD000B601B501B4018A11831238208A15031D9C
:101BE0000C2E64088316B300831263088316B200B8
:101BF000831262088316B100831261088316B00055
:101C0000B701B601B501B4018A11831238208A15D3
:101C100003180C2E031D512E6008EC005F08EB002A
:101C20005E08EA005D08E90000207A08E80079080B
:101C3000E7007808E6007708E50068088316B30037
:101C4000831267088316B200831266088316B100F8
:101C5000831265088316B000831264088316B700E8
:101C6000831263088316B600831262088316B500D8
:101C7000831261088316B4008A11831245218A15E4
:101C80007A08E8007908E7007808E6007708E500B8
:101C90006808EC006708EB006608EA006508E900E0
:081CA0000C228A110A16842BA4
:1020000003081F398300193083169900A630980001
:10201000903083129800C901C8018030C7007F301A
:10202000C600CD01CC018030CB007F30CA00D10189
:10203000D0018030CF007F30CE00D501D401D30154
:10204000D201FF30D80083161F149F141F159F1153
:1020500007309C0083138312A001A1010330831673
:1020600085001F109F101F119F111F1383121F1730
:102070009F1783169F1783121F14853090007C30A2
:10208000D6000130D7005702F800780DF700F70DA1
:10209000F70DF830F70577080538920056088316D3
:1020A0009200831258115808831687008312071173
:1020B0000C3097000030F8001F08C73978049F00E3
:1020C0003230D9000A1204200A161F151F1966287B
:1020D0001E08FA0083161E08B4007A08B5000A121A
:1020E000831219200A167A08AD007908AC00780826
:1020F000AB007708AA000830F8001F08C739780439
:102100009F003230D9000A1204200A161F151F1929
:1021100087281E08FA0083161E08B4007A08B50046
:102120000A12831219200A167A08B5007908B40039
:102130007808B3007708B2008316861083128614DD
:102140000230F700F70BA228A5280000831686109E
:1021500083128610831606148312061CAA288E0189
:102160008F018E018316061483120618B2280F08F9
:10217000FA000E08F7000F087A02031DB728770847
:102180008316B4007A08B5000A12831219200A16C1
:102190007A08A9007908A8007808A7007708A6009F
:1021A00049088316B300831248088316B2008312CD
:1021B00047088316B100831246088316B0008312C5
:1021C00029088316B700831228088316B6008312E5
:1021D00027088316B500831226088316B4000A1256
:1021E000831238200A160319E3292908C900280890
:1021F000C8002708C7002608C60029088316AC00B7
:10220000831228088316AB00831227088316AA00BE
:10221000831226088316A900B001AF01AE018030F9
:10222000AD000A12831279200A167A08DC007908B8
:10223000DB007808DA007708D9005C088316B30061
:1022400083125B088316B20083125A088316B1000A
:10225000831259088316B0002830B7007E30B600CC
:102260000C30B5007A30B4000A12831245210A16E8
:102270007A08A5007908A4007808A3007708A200CE
:10228000831425088316B700831224088316B6002A
:10229000831223088316B500831222088316B40024
:1022A000BB01BA014030B9008030B8000A12831275
:1022B000BC210A167A08D5007908D4007808D30022
:1022C0007708D2000D300C1E6329990064300C1E73
:1022D00067299900893084005508DC005408DB0028
:1022E0005308DA005208D9000230DD000A125123E7
:1022F0000A160A300C1E7A29990025088316B300A5
:10230000831224088316B200831223088316B100B7
:10231000831222088316B0007B30B7001430B60059
:102320004730B5008530B4000A12831238200A16EF
:1023300003189C29031DC1298316B301B201B10101
:102340008130B000831225088316B7008312240859
:102350008316B600831223088316B5008312220861
:102360008316B4000A12831238200A160318BA29F9
:10237000031DC129FF3095001708CF393038970069
:10238000E3297B308316B3001430B2004730B1002C
:102390008530B000831225088316B7008312240805
:1023A0008316B600831223088316B5008312220811
:1023B0008316B4000A12831238200A16031CE2297D
:1023C0009501E32995014D088316B30083124C084B
:1023D0008316B20083124B088316B10083124A0899
:1023E0008316B00083122D088316B70083122C08C1
:1023F0008316B60083122B088316B50083122A08B1
:102400008316B4000A12831238200A1603196E2AA2
:102410002D08CD002C08CC002B08CB002A08CA00C0
:102420002D088316B30083122C088316B200831282
:102430002B088316B10083122A088316B000B70157
:10244000B6014830B5008530B4000A128312452128
:102450000A167A08DC007908DB007808DA007708C9
:10246000D9005C088316AC0083125B088316AB00AE
:1024700083125A088316AA00831259088316A900EA
:10248000B001C030AF007F30AE008830AD000A121E
:10249000831279200A167A08B1007908B00078080A
:1024A000AF007708AE000D300C1E542A990074302E
:1024B0000C1E582A9900C93084003108DC0030080D
:1024C000DB002F08DA002E08D9000230DD000A12E6
:1024D00051230A160A300C1E6B2A990051088316E4
:1024E000B300831250088316B20083124F0883167C
:1024F000B10083124E088316B0008312350883168C
:10250000B700831234088316B6008312330883168B
:10251000B500831232088316B4000A1283123820E1
:102520000A160319BF2B3508D1003408D000330830
:10253000CF003208CE0035088316AC008312340871
:102540008316AB00831233088316AA008312320865
:102550008316A900B001C030AF007F30AE008830D4
:10256000AD000A12831279200A167A08DC00790875
:10257000DB007808DA007708D9005C088316B3001E
:1025800083125B088316B20083125A088316B100C7
:10259000831259088316B000B701B6012030B50088
:1025A0008130B4000A12831245210A167A08B90054
:1025B0007908B8007808B7007708B6008314831646
:1025C000B701B6012030B5008130B400831239085C
:1025D0008316BB00831238088316BA0083123708AB
:1025E0008316B900831236088316B8000A128312C4
:1025F000BC210A167A08BD007908BC007808BB0027
:102600007708BA0039088316B30083123808831696
:10261000B200831237088316B1008312360883167E
:10262000B000B7013830B6004730B5008E30B40086
:102630000A12831245210A167A08DC007908DB00A9
:102640007808DA007708D9005C088316AC0083129A
:102650005B088316AB0083125A088316AA00831204
:1026600059088316A90083123D088316B00083120F
:102670003C088316AF0083123B088316AE0083121A
:102680003A088316AD000A12831279200A167A08D6
:10269000C1007908C0007808BF007708BE00410873
:1026A0008316AC00831240088316AB0083123F08E8
:1026B0008316AA0083123E088316A900B001D93000
:1026C000AF007830AE008F30AD000A12831279204F
:1026D0000A167A08DC007908DB007808DA00770847
:1026E000D9005C08E0005B08DF005A08DE005908EA
:1026F000DD002B30E4002630E3001530E2007F30AF
:10270000E1000A128A156D2C0A168A118316AC0193
:10271000AB01AA017F30A9007A08B0007908AF00A8
:102720007808AE007708AD000A12831279200A16E5
:102730007A08C5007908C4007808C3007708C20089
:1027400020300C1EA12B99000D300C1EA52B9900DA
:1027500078300C1EA92B9900C93084004508DC0094
:102760004408DB004308DA004208D9000230DD00EB
:102770000A1251230A160A300C1EBC2B99005A2843
:022780006300F4
:02400E00713F00
:00000001FF
;PIC16F877A
;CRC=9A04  CREATED="13-dic.-21 20:29"
