:1000000010308A00002800000D32F630E3346F050E
:1000100000000D326C3665376F05000155308400E5
:1000200083130008031922280130F800F701F70BA9
:100030001728F80B16284A30F700F70B1D28202840
:10004000800B142808008E30F70083163108F80062
:100050003008F900FA01F808031D38287908F8007B
:10006000F9010830F702F808031D3828F701402885
:100070000310F81B3F28F90DF80DF7033828F81383
:100080008312080083162D08B4003108B406B41F8B
:100090004E2803110310AD1B031481282D08B40052
:1000A0003008B5002C08B50203195C28B41F81285C
:1000B0000308013A830081283108B5002D08B502F4
:1000C00003196828B41F81280308013A8300812896
:1000D0003208B5002E08B50203197428B41F812810
:1000E0000308013A830081283308B5002F08B502C0
:1000F00003198028B41F81280308013A830081284E
:100100000310831208008316250803194929B1003A
:10011000290803194929B102031C93287F30B1072C
:100120000318492999288130B102031C4929031970
:1001300049293108F700F801F901FA01B001260850
:10014000AF00AF172708AE002808AD001930B10086
:100150002C08AD020318BC280130AE020318BC28DD
:10016000AF020318BC28B0020318BC28B00AAF0ABB
:10017000AE0A2C08AD07EE282B08AE020318D728CC
:100180000130AF020318D728B0020318D728B00AED
:10019000AF0A2B08AE072C08AD07031CEE28AE0AE9
:1001A000031DEE28AF0A031DEE28B00AEE282A0828
:1001B0008038AF020318ED280130B0020318ED2893
:1001C000B00A2A088038AF072B08AE07031CCB28DB
:1001D000AF0A031DCB28B00ACB287A14B10BF12843
:1001E000FC280310AD0DAE0DAF0DB00D0310FA0DD0
:1001F000F90DF80DB20DA828321C04290310F80CD3
:10020000F90CFA0CB20C0729F70303194929B21BA0
:1002100030290310AD0DAE0DAF0DB00D2C08AD02A1
:1002200003181C290130AE0203181C29AF02031861
:100230001C29B002031C3F292B08AE0203182729F2
:100240000130AF0203182729B002031C3F292A08F6
:100250008038AF02031830290130B002031C3F2957
:10026000FA0A031D3F29F90A031D3F29F80A031D55
:100270003F29F70A03194929F80CF90CFA0C26084A
:10028000B1002A08B106B11F4729F8174D29F81304
:100290004D29F701F801F901FA01831208008316CC
:1002A0002C080319C029B40030080319C029B40769
:1002B000031861297F30B402031CC0290319C02927
:1002C00065298130B4070318C0293408F700F80104
:1002D000F901FA012D08B800B8172E08B7002F0849
:1002E000B6001830B400B501361C8E293308FA0761
:1002F000031C8029F90A031D8029F80A0319B51780
:100300003208F907031C8729F80A0319B5173108C1
:10031000AE00AE172E08F8070318B517B50DF80C88
:10032000F90CFA0CB80CB70CB60C0310B40B73290B
:100330000130F7070318C029F81BA529B80DFA0DDD
:10034000F90DF80DF7030319C029B81FB629FA0AE9
:10035000031DB629F90A031DB629F80A031DB6299B
:10036000F80CF90CFA0CF70A0319C0292D08B5008E
:100370003108B506B51FBE29F817C429F813C429DA
:10038000F701F801F901FA01831208008318CB295B
:100390006A3084008313F701F801F901FA01EA01D8
:1003A000EB01EC01ED0169086804670466040319B8
:1003B000092A2030EE000310E20DE30DE40DE50DF7
:1003C000EA0DEB0DEC0DED0D69086D02031DF22930
:1003D00068086C02031DF22967086B02031DF229ED
:1003E00066086A02031C032A6608EA026708031CFF
:1003F000670FEB026808031C680FEC026908031C16
:10040000690FED020314F70DF80DF90DFA0DEE0B5F
:10041000DB296A088000840A6B088000840A6C0863
:100420008000840A6D08800008000408DA0059087A
:10043000DC0003193C2A58088316AF0083125708C2
:100440008316AE00831256088316AD00831255083A
:100450008316AC00B301B2012030B1008230B0008D
:1004600083124F217A08D8007908D7007808D6007F
:100470007708D500DC0B1B2A5808E5005708E40074
:100480005608E3005508E2006208B63CE200FA01B3
:100490006308E600E3170310E30CE40CE50CFA0C28
:1004A000F90CF80CF70CE20B4B2AE61F622AF7094D
:1004B000F809F909FA09F70A0319F80A0319F90AF8
:1004C0000319FA0A7A08D8007908D7007808D60004
:1004D0007708D500D81F792ADA03DA16D509D609A4
:1004E000D709D809D50A0319D60A0319D70A031957
:1004F000D80A3B30E1009A30E000CA30DF00DE016C
:100500000A30DC0059080319DA0A831455308400D4
:1005100083135808E5005708E4005608E30055081F
:10052000E2006108E9006008E8005F08E7005E0893
:10053000E600C6217808F708031DB12A590A5C02B3
:100540000319B12A5A080319B32A0F395C02031997
:10055000AB2A0318E72ADA1BE72A5A1BB32A2030F2
:10056000E22A2030DA05DA1EC22ADA125908031DFF
:10057000DA037708DA002D300C1EBC2A99005A08DD
:10058000F700DA0159085C02031DD12A7708DA0066
:100590002E300C1EC92A99005A08F7002030DA05BF
:1005A00000303030DA1EE22ADA125908031DDA036D
:1005B0007708DA002D300C1EDB2A99005A08F70064
:1005C000DA013030F70777080C1EE42A990083100F
:1005D0006108E5006008E4005F08E3005E08E200EF
:1005E000E901E801E7010A30E600C6217A08E100E6
:1005F0007908E0007808DF007708DE00DC0B852A48
:1006000008000B08D5008B13831603178C170C14E6
:100610000000000083120313D51B8B1703170C086F
:100620007F390319572B0313D50003170D08031344
:10063000D60003170F080313D70055080C1E1E2BF6
:100640009900560803178D000313570803178F00EE
:1006500003130B08D8008B13831603178C170C1485
:100660000000000083120313D81B8B1703170C0D17
:100670000E0D7F390319572B0313D50003170D08EF
:100680000313D60003170F080313D70055080C1ED9
:10069000472B9900560803178D00031357080317BB
:1006A0008F008D0A03198F0A0313012B03170313FD
:1006B00008008030831C5F2B8316B50683128316D7
:1006C000BA01BB013108B9003508B9063008031971
:1006D0004D2CB800F70034080319562CB802031942
:1006E000F22B031CB02B3508BE00BE173608BD0028
:1006F0003708BC00BB010310BE0CBD0CBC0CBB0C0E
:10070000B80B7A2BB91F872B3A146A2C3A10381081
:100710003A16B330840083137F2C3A12B91B9A2BFC
:10072000381CA52BBE0CBD0CBC0CBB0CF70A031966
:10073000652CA52BBE1BA82B0310BB0DBC0DBD0D3E
:10074000BE0DF7030319652C9A2B3A17122C3A1396
:100750003108B900B91FAE2BBE175E2CBE135E2C3C
:100760003408B800F7003008B8023108BE00BE17E0
:100770003208BD003308BC00BB010310BE0CBD0C29
:10078000BC0CBB0CB80BBC2BB91FC92BBA146A2C00
:10079000BA103810BA16B730840083137F2CBA12FF
:1007A000B91BDC2B381CE72BBE0CBD0CBC0CBB0CE6
:1007B000F70A0319652CE72BBE1BEA2B0310BB0DB0
:1007C000BC0DBD0DBE0DF7030319652CDC2BBA174C
:1007D000122CBA133508B900B91FF02BBE175E2CC6
:1007E000BE135E2C3508BE00BE173608BD003708A4
:1007F000BC00B91FFF2BBE133A156A2C3A11BB017E
:100800003810B330840083137F2CB91B282C310897
:10081000B900381C122CBE0CBD0CBC0CBB0CF70A6A
:100820000319652CBB1F232CBC0A031D232CBD0AF6
:10083000031D232CBE0A031D232CBE0CBD0CBC0CB7
:10084000F70A0319652C3A1BA72BBA1BE92B472C77
:100850008030BE06BE1F302C6A2C3508B9003D2CF6
:100860003108B900BE08031D3D2CBD08031D3D2CF9
:10087000BC08031D3D2CF7015E2CBE1B472C03104A
:10088000BB0DBC0DBD0DBE0DF70B3D2C652CB91F6E
:100890004B2CBE175E2CBE135E2C3408F7003508B7
:1008A000BE003608BD003708BC005E2C3008F700DB
:1008B0003108BE003208BD003308BC003E08F80015
:1008C0003D08F9003C08FA009D2CF701F801F901F8
:1008D000FA019D2CBB01BC09BD09BE09BB09BB0ABD
:1008E000031D782CBC0A031D782CBD0A0319BE0A0F
:1008F0003A18862BBA18C82B3A19FE2B2D2C000853
:10090000BC07031C892CBD0A031D892CBE0A0319D0
:10091000381484030008BD07031C912CBE0A031978
:10092000381484030008801F803ABE070318381467
:100930003A1A8D2BBA1ACF2B052C831208008E3051
:10094000F70083162C08F7022D08F9002E08F8008E
:10095000F917F7080319B72C0310F908031DB32C76
:10096000F8080319B72CF90CF80CF70BAC2CAD1FD9
:10097000BE2CF809F909F80A0319F90A83120800CC
:1009800076107E088316A3007D08A2007C08A100D3
:100990007B08A0007E08AF007D08AE007C08AD009B
:1009A0007B08AC00B301B201B101B0018312422057
:1009B000031CE02C761483162108803AA1008312D0
:1009C00083162308AF002208AE002108AD002008DE
:1009D000AC00B301B201B1018E30B00083124220ED
:1009E0000318F42C031D112D83162308AF002208D1
:1009F000AE002108AD002008AC0083129F247908C6
:100A00008316B1007808B000831223207A08831679
:100A1000A7007908A6007808A5007708A400E92DAA
:100A2000831283162308AF002208AE002108AD0010
:100A30002008AC008030B3009630B2001830B1000E
:100A40009630B00083124220031CE02D8316230849
:100A5000AF002208AE002108AD002008AC00B301B1
:100A6000B201B1017030B00083124F217A088316B1
:100A7000AF007908AE007808AD007708AC008312AB
:100A80009F2479088316A9007808A8002308AF00DE
:100A90002208AE002108AD002008AC00B301B2016D
:100AA000B1017030B00083124F217A088316AD0077
:100AB0007908AC007808AB007708AA002908B100D3
:100AC0002808B00083122320831483162D08B30056
:100AD0002C08B2002B08B1002A08B0007A08B70031
:100AE0007908B6007808B5007708B4008312592356
:100AF0008316AF01AE01AD018E30AC007A08B300B1
:100B00007908B2007808B1007708B00083124F214D
:100B10007A088316A3007908A2007808A100770854
:100B2000A0002908B1002808B000831223208316F2
:100B3000AF01AE01AD018E30AC007A08B300790888
:100B4000B2007808B1007708B00083124F217A080C
:100B50008316A7007908A6007808A5007708A400E6
:100B60002308AF002208AE002108AD002008AC0029
:100B700083129F2479088316B1007808B00083128D
:100B80002320831083162708B3002608B200250807
:100B9000B1002408B0007A08B7007908B6007808D8
:100BA000B5007708B400831259237A088316A7008A
:100BB0007908A6007808A5007708A400E92D83121B
:100BC00083162308A7002208A6002108A5002008F4
:100BD000A4002308AF002208AE002108AD002008C1
:100BE000AC0083129F2479088316B1007808B00006
:100BF00083122320831483162308B3002208B20033
:100C00002108B1002008B0007A08B7007908B600C2
:100C10007808B5007708B400831259237A08831640
:100C2000A3007908A2007808A1007708A000761C2C
:100C30001C2E2508803AA5002308AF002208AE002C
:100C40002108AD002008AC00B301B201B101B00130
:100C50008312422003196B2E761C4C2EF508031DBF
:100C60004C2E831483162708B3002608B2002508EB
:100C7000B1002408B000B701B601B5017F30B4005F
:100C8000831259237A088316A7007908A6007808EA
:100C9000A5007708A400831276186B2E750B6B2EB7
:100CA000831083162708B3002608B2002508B10078
:100CB0002408B000B701B601B5017F30B40083123B
:100CC00059237A088316A7007908A6007808A5009A
:100CD0007708A40083127E088316AF007D08AE005B
:100CE0007C08AD007B08AC00B301B201B101B001DA
:100CF00083124220031D822E8316A701A601A5019F
:100D0000A401831283162408F7002508F80026089A
:100D1000F9002708FA008312080068088316AF005C
:100D2000831267088316AE00831266088316AD002F
:100D3000831265088316AC00B301B201B101B001A2
:100D4000831242200319A02F64088316A80083127F
:100D500063088316A700831262088316A600831215
:100D600061088316A500831268088316AC008312FD
:100D700067088316AB00831266088316AA008312E5
:100D800065088316A900831283207A08F000790889
:100D9000EF007808EE007708ED0070088316AF00CA
:100DA00083126F088316AE0083126E088316AD009F
:100DB00083126D088316AC00B301B201B101B0011A
:100DC00083124220031C212F64088316A80083127B
:100DD00063088316A700831262088316A600831295
:100DE00061088316A500831268088316AC0083127D
:100DF00067088316AB00831266088316AA00831265
:100E000065088316A900831283207A08F000790808
:100E1000EF007808EE007708ED007008F4006F0826
:100E2000F3006E08F2006D08F1007408FE0073080C
:100E3000FD007208FC007108FB000130F500C024C1
:100E40005C2F64088316A800831263088316A7002A
:100E5000831262088316A600831261088316A50018
:100E6000831268088316AC00831267088316AB00F0
:100E7000831266088316AA00831265088316A900E8
:100E8000831283207A08F0007908EF007808EE00DA
:100E90007708ED007008F4006F08F3006E08F200A8
:100EA0006D08F1007408FE007308FD007208FC0074
:100EB0007108FB00F501C0247A08EC007908EB000A
:100EC0007808EA007708E9006C088316AF008312FF
:100ED0006B088316AE0083126A088316AD00831276
:100EE00069088316AC00831268088316B300831266
:100EF00067088316B200831266088316B100831256
:100F000065088316B00083124F218314640883168A
:100F1000B300831263088316B2008312620883163B
:100F2000B100831261088316B0007A08B70079080F
:100F3000B6007808B5007708B40083125923A02FB3
:100F400008008E30F70083162208F8002108F90007
:100F5000FA01A21FB02FF809F909F90A0319F80AD2
:100F6000F808031DBD2F7908F800F9010830F702D1
:100F7000F808031DBD2FF701C62F0310F81BC42F5F
:100F8000F90DF80DF703BD2FA21FF8138312080007
:101000006808EC006708EB006608EA006508E9007C
:101010006C088316AF0083126B088316AE00831230
:101020006A088316AD00831269088316AC00B30109
:10103000B201B1017F30B0008A11831242208A15BB
:101040000319112A8316A1016930A0002008840029
:101050008313211883177E308000831483126C0859
:101060008316B30083126B088316B20083126A08DA
:101070008316B100831269088316B000B701B60168
:10108000B5017F30B4008A11831259238A157A087A
:101090008316A3007908A2007808A1007708A000B1
:1010A000831083126C088316B30083126B088316B7
:1010B000B20083126A088316B1008312690883168E
:1010C000B000B701B601B5017F30B4008A118312B8
:1010D00059238A1583162308A8002208A70021088F
:1010E000A6002008A5007A08AC007908AB007808B3
:1010F000AA007708A9008A11831283208A157A082A
:10110000EC007908EB007808EA007708E9006C0841
:101110008316AF0083126B088316AE0083126A0831
:101120008316AD00831269088316AC0083126C0825
:101130008316B30083126B088316B20083126A0809
:101140008316B100831269088316B0008A118312D6
:101150004F218A157A08FE007908FD007808FC0006
:101160007708FB0099308316AF004730AE008A3015
:10117000AD007F30AC007E08B3007D08B2007C0873
:10118000B1007B08B0008A1183124F218A157A08BA
:101190008316A3007908A2007808A1007708A000B0
:1011A00083102308B3002208B2002108B1002008F0
:1011B000B000B701B601B5018030B4008A118312C6
:1011C00059238A157A08F0007908EF007808EE00B4
:1011D0007708ED004C308316AF00F330AE003A30A4
:1011E000AD007B30AC007E08B3007D08B2007C0807
:1011F000B1007B08B0008A1183124F218A157A084A
:101200008316A3007908A2007808A1007708A0003F
:1012100083102308B3002208B2002108B10020087F
:10122000B0002B30B7009D30B600DF30B5007E3007
:10123000B4008A11831259238A157A08F4007908B8
:10124000F3007808F2007708F10074088316AF0005
:101250007308AE007208AD007108AC007E08B300E0
:101260007D08B2007C08B1007B08B0008A118312AF
:101270004F218A157A088316A3007908A2007808FE
:10128000A1007708A00083102308B3002208B20051
:101290002108B1002008B000B701B601B5017F30C8
:1012A000B4008A11831259238A157A08F400790848
:1012B000F3007808F2007708F1006C088316AF009D
:1012C00083126B088316AE0083126A088316AD0082
:1012D000831269088316AC007008B30083126F088C
:1012E0008316B20083126E088316B10083126D0854
:1012F0008316B0008A1183124F218A157A0883164B
:10130000A3007908A2007808A1007708A0002308AC
:10131000A8002208A7002108A6002008A50074083C
:10132000AC007308AB007208AA007108A9008A110A
:10133000831283208A157A08F0007908EF00780874
:10134000EE007708ED008316A1016530A0002008AB
:1013500084008313211883177E300002F500F51FE7
:10136000C6297508003CA201A100A11BA2038A1195
:101370008312A1278A157708F1007808803AF200D5
:101380007908F3007A08F400D7298316A2017508BA
:10139000A100A11BA2038A118312A1278A157A0832
:1013A000F4007908F3007808F2007708F100740877
:1013B0008316AF007308AE007208AD007108AC0070
:1013C0001830B3007230B2003130B1007E30B0005E
:1013D0008A1183124F218A15831070088316B30077
:1013E00083126F088316B20083126E088316B10051
:1013F00083126D088316B0007A08B7007908B6002A
:101400007808B5007708B4008A11831259238A1529
:101410007A08F0007908EF007808EE007708ED0010
:10142000152AF001EF01EE01ED016D08F7006E08DD
:10143000F8006F08F9007008FA00080068088316C1
:10144000AF00831267088316AE0083126608831606
:10145000AD00831265088316AC003B30B300AA30A0
:10146000B2003830B1007F30B0008A1183124F21B2
:101470008A157A088316AF007908AE007808AD00A7
:101480007708AC008A1183129F248A157808F5002A
:1014900076106808EC006708EB006608EA0065084B
:1014A000E90068088316AF00831267088316AE0050
:1014B000831266088316AD00831265088316AC009C
:1014C000B301B201B101B0018A11831242208A1521
:1014D000031C702A7614F509F50A6A08803AEA00B6
:1014E000F001EF01EE01ED01FC016D30FB007B0826
:1014F000840083137C1883177F30750780006C0885
:101500008316AF0083126B088316AE0083126A083D
:101510008316AD00831269088316AC003B30B3001C
:10152000AA30B2003830B1007F30B0008A11831287
:101530004F218A157A08FE007908FD007808FC0022
:101540007708FB008316A2017508A100A11BA20366
:101550008A118312A1278A1583147E088316B3008B
:101560007D08B2007C08B1007B08B0007A08B700A3
:101570007908B6007808B5007708B4008A1183129C
:1015800059238A157A08EC007908EB007808EA00FC
:101590007708E9007C308316AF008830AE00593000
:1015A000AD007230AC0083126C088316B300831256
:1015B0006B088316B20083126A088316B100831287
:1015C00069088316B0008A1183124F218A157A08A0
:1015D000FE007908FD007808FC007708FB00831006
:1015E0007A088316B3007908B2007808B10077084A
:1015F000B000E030B7009730B6002630B500753047
:10160000B4008A11831259238A157A08F4007908E4
:10161000F3007808F2007708F10074088316AF0031
:101620007308AE007208AD007108AC0083126C083C
:101630008316B30083126B088316B20083126A0804
:101640008316B100831269088316B0008A118312D1
:101650004F218A157A08FE007908FD007808FC0001
:101660007708FB0083107A088316B3007908B2006C
:101670007808B1007708B000C430B7001D30B6005C
:101680001E30B5007830B4008A11831259238A15B0
:101690007A08F4007908F3007808F2007708F1007E
:1016A00074088316AF007308AE007208AD007108AD
:1016B000AC0083126C088316B30083126B08831688
:1016C000B20083126A088316B10083126908831678
:1016D000B0008A1183124F218A157A08FE0079081A
:1016E000FD007808FC007708FB0083107A08831659
:1016F000B3007908B2007808B1007708B0005E3016
:10170000B7005030B6006330B5007A30B4008A11AB
:10171000831259238A157A08F4007908F3007808AF
:10172000F2007708F10074088316AF007308AE006A
:101730007208AD007108AC0083126C088316B30008
:1017400083126B088316B20083126A088316B100F5
:10175000831269088316B0008A1183124F218A15FB
:101760007A08FE007908FD007808FC007708FB0085
:1017700083107A088316B3007908B2007808B100A4
:101780007708B0001A30B700FE30B6007530B500EB
:101790007C30B4008A11831259238A157A08F40028
:1017A0007908F3007808F2007708F10074088316CE
:1017B000AF007308AE007208AD007108AC00831270
:1017C0006C088316B30083126B088316B200831271
:1017D0006A088316B100831269088316B0008A1163
:1017E00083124F218A157A08FE007908FD007808D7
:1017F000FC007708FB0083107A088316B300790891
:10180000B2007808B1007708B0001830B700723025
:10181000B6003130B5007E30B4008A1183125923EE
:101820008A157A08F4007908F3007808F20077083E
:10183000F1006C088316AF0083126B088316AE00AC
:1018400083126A088316AD00831269088316AC0000
:101850007408B3007308B2007208B1007108B000D8
:101860008A1183124F218A1583108316B301B201A6
:10187000B1017F30B0007A08B7007908B600780867
:10188000B5007708B4008A11831259238A157008AD
:101890008316AF0083126F088316AE0083126E08A2
:1018A0008316AD0083126D088316AC007A08B3006E
:1018B0007908B2007808B1007708B0008A11831265
:1018C0004F218A157A08F0007908EF007808EE00B9
:1018D0007708ED00761C8C2C8316A801A701A601C1
:1018E0007F30A5007008AC0083126F088316AB0030
:1018F00083126E088316AA0083126D088316A9004E
:101900008A11831283208A157A08F0007908EF0083
:101910007808EE007708ED006D08F7006E08F80013
:101920006F08F9007008FA0008005C088316AF0021
:1019300083125B088316AE0083125A088316AD002B
:10194000831259088316AC00B301B201B101B00192
:101950008A11831242208A15031CB02D6008E4000E
:101960005F08E3005E08E2005D08E100E801E701CE
:10197000E6017F30E5008A118D268A157A08E40099
:101980007908E3007808E2007708E100640883162C
:10199000AF00831263088316AE00831262088316B9
:1019A000AD00831261088316AC00B301B201B1012E
:1019B000B0018A11831242208A15031DB02D6008E0
:1019C000E4005F08E3005E08E2005D08E100E80172
:1019D000E701E6018030E5008A118D268A157A0834
:1019E000E4007908E3007808E2007708E100640881
:1019F0008316AF00831263088316AE008312620859
:101A00008316AD00831261088316AC00B301B201E6
:101A1000B101B0018A11831242208A15031D5F2D86
:101A20005908E1005A08803AE2005B08E3005C08CC
:101A3000E400E8006308E7006208E6006108E500EA
:101A400000207A08E4007908E3007808E2007708CB
:101A5000E10064088316AF00831263088316AE00AA
:101A6000831262088316AD00831261088316AC00EE
:101A7000831260088316B30083125F088316B200D6
:101A800083125E088316B10083125D088316B000CE
:101A90008A1183124F218A157A08E4007908E3003D
:101AA0007808E2007708E1006408E8006308E700CE
:101AB0006208E6006108E5001E22792EAF2D590864
:101AC000E1005A08803AE2005B08E3005C08E400A9
:101AD000E8006308E7006208E6006108E50000200E
:101AE0007A08E4007908E3007808E2007708E1006A
:101AF00064088316AF00831263088316AE00831256
:101B000062088316AD00831261088316AC0083124D
:101B100060088316B30083125F088316B200831235
:101B20005E088316B10083125D088316B0008A1127
:101B300083124F218A157A08E4007908E3007808B7
:101B4000E2007708E1006408E8006308E700620843
:101B5000E6006108E5001E228030F806792E792E15
:101B60005C088316AF0083125B088316AE008312F5
:101B70005A088316AD00831259088316AC00B301CE
:101B8000B201B101B0018A11831242208A15031CEF
:101B9000002E6008E4005F08E3005E08E2005D08D4
:101BA000E100E801E701E6017F30E5008A118D26BA
:101BB0008A157A08E4007908E3007808E2007708DB
:101BC000E10064088316AF00831263088316AE0039
:101BD000831262088316AD00831261088316AC007D
:101BE000B301B201B101B0018A11831242208A15FA
:101BF0000319002EF701F801F901FA01792E792E67
:101C00005C088316AF0083125B088316AE00831254
:101C10005A088316AD00831259088316AC00B3012D
:101C2000B201B101B0018A11831242208A15031D4D
:101C3000342E60088316AF0083125F088316AE004F
:101C400083125E088316AD0083125D088316AC0014
:101C5000B301B201B101B0018A11831242208A1589
:101C60000318342E031D792E5C08E8005B08E7009A
:101C70005A08E6005908E50000207A08E4007908CF
:101C8000E3007808E2007708E10064088316AF00FB
:101C9000831263088316AE00831262088316AD00B8
:101CA000831261088316AC00831260088316B300A8
:101CB00083125F088316B20083125E088316B10098
:101CC00083125D088316B0008A1183124F218A1592
:101CD0007A08E4007908E3007808E2007708E10078
:101CE0006408E8006308E7006208E6006108E500B0
:081CF0001E228A110A16702B56
:1020000003081F398300193083169900A630980001
:10201000903083129800C901C8018030C7007F301A
:10202000C600CD01CC018030CB007F30CA00D10189
:10203000D0018030CF007F30CE00FF30D400831637
:102040001F149F141F159F1107309C0083138312C8
:10205000A001A1010330831685001F109F101F11DE
:102060009F111F1383121F179F1783169F17831229
:102070001F14853090007C30D2000130D300530211
:10208000F800780DF700F70DF70DF830F705770831
:102090000538920052088316920083125411540896
:1020A00083168700831207110C3097000030F80068
:1020B0001F08C73978049F003230D5000A120E205D
:1020C0000A161F151F1962281E08FA0083161E081B
:1020D000B0007A08B1000A12831223200A167A0887
:1020E000AD007908AC007808AB007708AA0008308A
:1020F000F8001F08C73978049F003230D5000A1253
:102100000E200A161F151F1983281E08FA008316B1
:102110001E08B0007A08B1000A12831223200A16A2
:102120007A08B5007908B4007808B3007708B200DF
:1021300083168610831286140230F700F70B9E2850
:10214000A1280000831686108312861083160614B9
:102150008312061CA6288E018F018E018316061499
:1021600083120618AE280F08FA000E08F7000F08B1
:102170007A02031DB32877088316B0007A08B100ED
:102180000A12831223200A167A08A9007908A800E7
:102190007808A7007708A60049088316AF008312C5
:1021A00048088316AE00831247088316AD008312D9
:1021B00046088316AC00831229088316B3008312E5
:1021C00028088316B200831227088316B1008312F1
:1021D00026088316B0000A12831242200A16031939
:1021E000CF292908C9002808C8002708C7002608E1
:1021F000C60029088316A800831228088316A700A2
:10220000831227088316A600831226088316A500CA
:10221000AC01AB01AA018030A9000A12831283200D
:102220000A167A08D8007908D7007808D600770807
:10223000D50058088316AF00831257088316AE00E6
:10224000831256088316AD00831255088316AC001E
:102250002830B3007E30B2000C30B1007A30B000CC
:102260000A1283124F210A167A08A5007908A400E1
:102270007808A3007708A2000D300C1E3D299900B4
:1022800064300C1E41299900893084002508D8004B
:102290002408D7002308D6002208D5000230D90030
:1022A0000A1215220A160A300C1E54299900250814
:1022B0008316AF00831224088316AE00831223080E
:1022C0008316AD00831222088316AC007B30B30066
:1022D0001430B2004730B1008530B0000A128312CA
:1022E00042200A1603187629031D9B298316AF0185
:1022F000AE01AD018130AC00831225088316B30016
:10230000831224088316B200831223088316B100B7
:10231000831222088316B0000A12831242200A1682
:1023200003189429031D9B29FF3095001708CF3906
:1023300030389700CF297B308316AF001430AE00C1
:102340004730AD008530AC00831225088316B300FA
:10235000831224088316B200831223088316B10067
:10236000831222088316B0000A12831242200A1632
:10237000031CC5299501043003178D0000308F0020
:102380000A12031301230A16CF29950109300317F6
:102390008D0000308F000A12031301230A164D0826
:1023A0008316AF0083124C088316AE0083124B08CD
:1023B0008316AD0083124A088316AC0083122D08E1
:1023C0008316B30083122C088316B20083122B08E5
:1023D0008316B10083122A088316B0000A128312F2
:1023E00042200A1603195A2A2D08CD002C08CC00C9
:1023F0002B08CB002A08CA002D088316AF008312D1
:102400002C088316AE0083122B088316AD008312AE
:102410002A088316AC00B301B2014830B100853000
:10242000B0000A1283124F210A167A08D8007908E0
:10243000D7007808D6007708D50058088316A8007A
:10244000831257088316A700831256088316A60026
:10245000831255088316A500AC01C030AB007F3055
:10246000AA008830A9000A12831283200A167A086B
:10247000B1007908B0007808AF007708AE000D30E1
:102480000C1E402A990074300C1E442A9900C93051
:1024900084003108D8003008D7002F08D6002E0855
:1024A000D5000230D9000A1215220A160A300C1E75
:1024B000572A990051088316AF00831250088316DB
:1024C000AE0083124F088316AD0083124E088316A8
:1024D000AC00831235088316B300831234088316C8
:1024E000B200831233088316B100831232088316B8
:1024F000B0000A12831242200A160319AB2B3508CA
:10250000D1003408D0003308CF003208CE0035089F
:102510008316A800831234088316A7008312330899
:102520008316A600831232088316A500AC01C030C2
:10253000AB007F30AA008830A9000A1283128320E2
:102540000A167A08D8007908D7007808D6007708E4
:10255000D50058088316AF00831257088316AE00C3
:10256000831256088316AD00831255088316AC00FB
:10257000B301B2012030B1008130B0000A128312E1
:102580004F210A167A08B9007908B8007808B70010
:102590007708B60083148316B301B2012030B1006E
:1025A0008130B000831239088316B70083123808CF
:1025B0008316B600831237088316B50083123608D7
:1025C0008316B4000A12831259230A167A08BD0032
:1025D0007908BC007808BB007708BA003908831670
:1025E000AF00831238088316AE00831237088316B3
:1025F000AD00831236088316AC00B3013830B20048
:102600004730B1008E30B0000A1283124F210A16F3
:102610007A08D8007908D7007808D6007708D5005E
:1026200058088316A800831257088316A700831240
:1026300056088316A600831255088316A500831238
:102640003D088316AC0083123C088316AB0083124E
:102650003B088316AA0083123A088316A9000A12BF
:10266000831283200A167A08C1007908C00078080E
:10267000BF007708BE0041088316A80083124008F7
:102680008316A70083123F088316A60083123E0814
:102690008316A500AC01D930AB007830AA008F308A
:1026A000A9000A12831283200A167A08D800790832
:1026B000D7007808D6007708D5005808DC005708FE
:1026C000DB005608DA005508D9002B30E000263030
:1026D000DF001530DE007F30DD000A128A15952CF0
:1026E0000A168A118316A801A701A6017F30A5004A
:1026F0007A08AC007908AB007808AA007708A9002E
:102700000A12831283200A167A08C5007908C400C9
:102710007808C3007708C20020300C1E8D2B99006A
:102720000D300C1E912B990078300C1E952B9900C2
:10273000C93084004508D8004408D7004308D600B3
:102740004208D5000230D9000A1215220A160A30B2
:0A2750000C1EA82B99005628630008
:02400E00713F00
:00000001FF
;PIC16F877A
;CRC=3D0C  CREATED="12-dic.-21 16:15"
