:1000000004308A009A2C00000D2A6937E1316F1004
:10001000F630E3346F0500000D2A6937E1316F10C7
:100020006C3665376F0500008E30F7003208F80037
:100030003108F900FA01F808031D28287908F800AA
:10004000F9010830F702F808031D2828F7013028C5
:100050000310F81B2F28F90DF80DF7032828F813C3
:100060008A110A12FD2C31080319F828BD00350841
:100070000319F828BD02031C42287F30BD0703186E
:10008000F82848288130BD02031CF8280319F828F5
:100090003D08F700F801F901FA01BC013208BB0084
:1000A000BB173308BA003408B9001930BD0038084E
:1000B000B90203186B280130BA0203186B28BB027F
:1000C00003186B28BC0203186B28BC0ABB0ABA0AC7
:1000D0003808B9079D283708BA0203188628013066
:1000E000BB0203188628BC0203188628BC0ABB0A78
:1000F0003708BA073808B907031C9D28BA0A031D38
:100100009D28BB0A031D9D28BC0A9D2836088038FF
:10011000BB0203189C280130BC0203189C28BC0AAF
:1001200036088038BB073708BA07031C7A28BB0A91
:10013000031D7A28BC0A7A287A14BD0BA028AB28A4
:100140000310B90DBA0DBB0DBC0D0310FA0DF90D5E
:10015000F80DBE0D57283E1CB3280310F80CF90CFF
:10016000FA0CBE0CB628F7030319F828BE1BDF28CB
:100170000310B90DBA0DBB0DBC0D3808B902031838
:10018000CB280130BA020318CB28BB020318CB28B6
:10019000BC02031CEE283708BA020318D628013027
:1001A000BB020318D628BC02031CEE283608803890
:1001B000BB020318DF280130BC02031CEE28FA0A38
:1001C000031DEE28F90A031DEE28F80A031DEE2888
:1001D000F70A0319F828F80CF90CFA0C3208BD00DC
:1001E0003608BD06BD1FF628F817FC28F813FC28B2
:1001F000F701F801F901FA018A110A12132D3E08DC
:1002000003196F29C600420803196F29C60703188E
:1002100010297F30C602031C6F2903196F29142986
:100220008130C60703186F294608F700F801F90165
:10023000FA013F08CA00CA174008C9004108C800AF
:100240001830C600C701481C3D294508FA07031CA1
:100250002F29F90A031D2F29F80A0319C717440883
:10026000F907031C3629F80A0319C7174308C00009
:10027000C0174008F8070318C717C70DF80CF90C8A
:10028000FA0CCA0CC90CC80C0310C60B2229013089
:10029000F70703186F29F81B5429CA0DFA0DF90D39
:1002A000F80DF70303196F29CA1F6529FA0A031D00
:1002B0006529F90A031D6529F80A031D6529F80C4B
:1002C000F90CFA0CF70A03196F293F08C700430815
:1002D000C706C71F6D29F8177329F8137329F7018B
:1002E000F801F901FA0108003208B9003608B90628
:1002F000B91F7F2903110310B21B0314B22932085E
:10030000B9003508BA003108BA0203198D29B91F9E
:10031000B2290308013A8300B2293608BA0032082C
:10032000BA0203199929B91FB2290308013A8300B7
:10033000B2293708BA003308BA020319A529B91F30
:10034000B2290308013A8300B2293808BA003408F8
:10035000BA020319B129B91FB2290308013A83006F
:10036000B2290310080080308318B606BB01BC0117
:100370003208BA003608BA0631080319A32AB900B0
:10038000F70035080319AC2AB9020319482A031CDF
:10039000062A3608BF00BF173708BE003808BD0060
:1003A000BC010310BF0CBE0CBD0CBC0CB90BD0299A
:1003B000BA1FDD293B14C02A3B1039103B163430DC
:1003C00084008313D52A3B12BA1BF029391CFB2960
:1003D000BF0CBE0CBD0CBC0CF70A0319BB2AFB29D1
:1003E000BF1BFE290310BC0DBD0DBE0DBF0DF703D5
:1003F0000319BB2AF0293B17682A3B133208BA00BD
:10040000BA1F042ABF17B42ABF13B42A3508B9008B
:10041000F7003108B9023208BF00BF173308BE0029
:100420003408BD00BC010310BF0CBE0CBD0CBC0CDD
:10043000B90B122ABA1F1F2ABB14C02ABB103910CD
:10044000BB16383084008313D52ABB12BA1B322A5C
:10045000391C3D2ABF0CBE0CBD0CBC0CF70A03199D
:10046000BB2A3D2ABF1B402A0310BC0DBD0DBE0D8B
:10047000BF0DF7030319BB2A322ABB17682ABB1327
:100480003608BA00BA1F462ABF17B42ABF13B42AC7
:100490003608BF00BF173708BE003808BD00BA1FB6
:1004A000552ABF133B15C02A3B11BC01391034300B
:1004B00084008313D52ABA1B7E2A3208BA00391C5D
:1004C000682ABF0CBE0CBD0CBC0CF70A0319BB2A72
:1004D000BC1F792ABD0A031D792ABE0A031D792A89
:1004E000BF0A031D792ABF0CBE0CBD0CF70A031905
:1004F000BB2A3B1BFD29BB1B3F2A9D2A8030BF0620
:10050000BF1F862AC02A3608BA00932A3208BA00CA
:10051000BF08031D932ABE08031D932ABD08031DAF
:10052000932AF701B42ABF1B9D2A0310BC0DBD0DF1
:10053000BE0DBF0DF70B932ABB2ABA1FA12ABF1706
:10054000B42ABF13B42A3508F7003608BF003708AD
:10055000BE003808BD00B42A3108F7003208BF00D9
:100560003308BE003408BD003F08F8003E08F9001B
:100570003D08FA00F32AF701F801F901FA01F32A1C
:10058000BC01BD09BE09BF09BC09BC0A031DCE2AB6
:10059000BD0A031DCE2ABE0A0319BF0A3B18DC2977
:1005A000BB181E2A3B19542A832A0008BD07031CC6
:1005B000DF2ABE0A031DDF2ABF0A03193914840388
:1005C0000008BE07031CE72ABF0A03193914840375
:1005D0000008801F803ABF07031839143B1AE3292B
:1005E000BB1A252A5B2A8A110A12572D8318FB2A67
:1005F000463084008313F701F801F901FA01C601BE
:10060000C701C801C9014508440443044204031951
:10061000392B2030CA000310BE0DBF0DC00DC10D17
:10062000C60DC70DC80DC90D45084902031D222B73
:1006300044084802031D222B43084702031D222BB6
:1006400042084602031C332B4208C6024308031C1F
:10065000430FC7024408031C440FC8024508031C8B
:10066000450FC9020314F70DF80DF90DFA0DCA0B69
:100670000B2B46088000840A47088000840A48083B
:100680008000840A4908800008000408B600350884
:10069000B8000319642B3408C1003308C0003208C5
:1006A000BF003108BE00C501C4012030C300823044
:1006B000C200FF207A08B4007908B3007808B200BD
:1006C0007708B100B80B4B2B3408C1003308C000C9
:1006D0003208BF003108BE003E08B63CBE00FA0139
:1006E0003F08C200BF170310BF0CC00CC10CFA0CAE
:1006F000F90CF80CF70CBE0B732BC21F8A2BF709F1
:10070000F809F909FA09F70A0319F80A0319F90AA5
:100710000319FA0A7A08B4007908B3007808B2001D
:100720007708B100B41FA12BB603B616B109B20900
:10073000B309B409B10A0319B20A0319B30A0319B8
:10074000B40A3B30BD009A30BC00CA30BB00BA01CD
:100750000A30B80035080319B60A83143130840012
:1007600083133408C1003308C0003208BF003108C9
:10077000BE003D08C5003C08C4003B08C3003A0861
:10078000C200F6227808F708031DD92B350A380273
:100790000319D92B36080319DB2B0F39380203193B
:1007A000D32B03180F2CB61B0F2C361BDB2B203042
:1007B0000A2C2030B605B61EEA2BB6123508031DEA
:1007C000B6037708B6002D300C1EE42B99003608CE
:1007D000F700B60135083802031DF92B7708B6007B
:1007E0002E300C1EF12B99003608F7002030B6058C
:1007F00000303030B61E0A2CB6123508031DB60381
:100800007708B6002D300C1E032C99003608F7002F
:10081000B6013030F70777080C1E0C2C99008310B6
:100820003D08C1003C08C0003B08BF003A08BE00BC
:10083000C501C401C3010A30C200F6227A08BD0016
:100840007908BC007808BB007708BA00B80BAD2B5C
:100850008A110A12702D0B08B1008B13831603172F
:100860008C170C140000000083120313B11B8B17AC
:1008700003170C087F390319812C0313B1000317E8
:100880000D080313B20003170F080313B300310858
:100890000C1E482C9900320803178D0003133308EF
:1008A00003178F0003130B08B4008B138316031771
:1008B0008C170C140000000083120313B41B8B1759
:1008C00003170C0D0E0D7F390319812C0313B10092
:1008D00003170D080313B20003170F080313B30027
:1008E00031080C1E712C9900320803178D00031378
:1008F000330803178F008D0A03198F0A03132B2C5B
:100900000317031308003130840083130008031910
:10091000972C0130F800F701F70B8C2CF80B8B2C7F
:100920004A30F700F70B922C952C800B892C8A11FA
:100930000A12C92D03081F39830019308316990044
:10094000A6309800903083129800AD01AC01803041
:10095000AB007F30AA00FF30B00083161F149F1435
:100960001F159F1107309C0083138312A001A10162
:10097000853090007C30AE000130AF002F02F800CF
:10098000780DF700F70DF70DF830F7057708053803
:1009900092002E08831692008312301130088316BD
:1009A0008700831207110C3097008316861083127C
:1009B00086140230F700F70BDB2CDE2C00008316C8
:1009C000861083128610831606148312061CE32CED
:1009D0008E018F018E018316061483120618EB2CEC
:1009E0000F08FA000E08F7000F087A02031DF02C1A
:1009F0007708B1007A08B20014287A08A9007908AB
:100A0000A8007808A7007708A6002908B4002808DD
:100A1000B3002708B2002608B100B801B701B6013B
:100A20008030B50033287A08B4007908B30078081C
:100A3000B2007708B1007A08C1007908C0007808D0
:100A4000BF007708BE002830C5007E30C4000C30DF
:100A5000C3007A30C200FF207A08A5007908A400FC
:100A60007808A3007708A2002D08B4002C08B30072
:100A70002B08B2002A08B1002508B8002408B700E6
:100A80002308B6002208B50074210319C62D83146B
:100A90002508B4002408B3002308B2002208B100DE
:100AA000B801B7014030B6008030B500B3297A08EC
:100AB000AD007908AC007808AB007708AA000D30CB
:100AC0000C1E602D9900893084002D08B4002C087C
:100AD000B3002B08B2002A08B1000230B500452B44
:100AE0000A300C1E712D99002D08B4002C08B3009B
:100AF0002B08B2002A08B1007B30B8001430B700D0
:100B00004730B6008530B50074210318892D031DC8
:100B1000A22DB401B301B2018130B1002D08B8009B
:100B20002C08B7002B08B6002A08B500742103185A
:100B30009B2D031DA22DFF3095001708CF393038AB
:100B40009700C62D7B30B4001430B3004730B2009C
:100B50008530B1002D08B8002C08B7002B08B6006E
:100B60002A08B5007421031CBE2D9501043003171B
:100B70008D0000308F0003132B24C62D95010C30FF
:100B800003178D0000308F0003132B249630B10023
:060B9000832CD52C63004C
:02400E00713F00
:00000001FF
;PIC16F877A
;CRC=CA9E  CREATED="12-dic.-21 17:31"
