:1000000003308A00572B00000D2A6937E1316F1049
:10001000F630E3346F0500000D2A6937E1316F10C7
:100020006C3665376F0500008E30F7003208F80037
:100030003108F900FA01F808031D28287908F800AA
:10004000F9010830F702F808031D2828F7013028C5
:100050000310F81B2F28F90DF80DF7032828F813C3
:100060008A110A12BA2B31080319F828BD00350885
:100070000319F828BD02031C42287F30BD0703186E
:10008000F82848288130BD02031CF8280319F828F5
:100090003D08F700F801F901FA01BC013208BB0084
:1000A000BB173308BA003408B9001930BD0038084E
:1000B000B90203186B280130BA0203186B28BB027F
:1000C00003186B28BC0203186B28BC0ABB0ABA0AC7
:1000D0003808B9079D283708BA0203188628013066
:1000E000BB0203188628BC0203188628BC0ABB0A78
:1000F0003708BA073808B907031C9D28BA0A031D38
:100100009D28BB0A031D9D28BC0A9D2836088038FF
:10011000BB0203189C280130BC0203189C28BC0AAF
:1001200036088038BB073708BA07031C7A28BB0A91
:10013000031D7A28BC0A7A287A14BD0BA028AB28A4
:100140000310B90DBA0DBB0DBC0D0310FA0DF90D5E
:10015000F80DBE0D57283E1CB3280310F80CF90CFF
:10016000FA0CBE0CB628F7030319F828BE1BDF28CB
:100170000310B90DBA0DBB0DBC0D3808B902031838
:10018000CB280130BA020318CB28BB020318CB28B6
:10019000BC02031CEE283708BA020318D628013027
:1001A000BB020318D628BC02031CEE283608803890
:1001B000BB020318DF280130BC02031CEE28FA0A38
:1001C000031DEE28F90A031DEE28F80A031DEE2888
:1001D000F70A0319F828F80CF90CFA0C3208BD00DC
:1001E0003608BD06BD1FF628F817FC28F813FC28B2
:1001F000F701F801F901FA018A110A12D02B3E0821
:1002000003196F29C600420803196F29C60703188E
:1002100010297F30C602031C6F2903196F29142986
:100220008130C60703186F294608F700F801F90165
:10023000FA013F08CA00CA174008C9004108C800AF
:100240001830C600C701481C3D294508FA07031CA1
:100250002F29F90A031D2F29F80A0319C717440883
:10026000F907031C3629F80A0319C7174308C00009
:10027000C0174008F8070318C717C70DF80CF90C8A
:10028000FA0CCA0CC90CC80C0310C60B2229013089
:10029000F70703186F29F81B5429CA0DFA0DF90D39
:1002A000F80DF70303196F29CA1F6529FA0A031D00
:1002B0006529F90A031D6529F80A031D6529F80C4B
:1002C000F90CFA0CF70A03196F293F08C700430815
:1002D000C706C71F6D29F8177329F8137329F7018B
:1002E000F801F901FA0108003208B9003608B90628
:1002F000B91F7F2903110310B21B0314B22932085E
:10030000B9003508BA003108BA0203198D29B91F9E
:10031000B2290308013A8300B2293608BA0032082C
:10032000BA0203199929B91FB2290308013A8300B7
:10033000B2293708BA003308BA020319A529B91F30
:10034000B2290308013A8300B2293808BA003408F8
:10035000BA020319B129B91FB2290308013A83006F
:10036000B229031008008318B8294630840083138B
:10037000F701F801F901FA01C601C701C801C90175
:1003800045084404430442040319F6292030CA00F6
:100390000310BE0DBF0DC00DC10DC60DC70DC80D9C
:1003A000C90D45084902031DDF2944084802031D01
:1003B000DF2943084702031DDF2942084602031CC8
:1003C000F0294208C6024308031C430FC702440831
:1003D000031C440FC8024508031C450FC90203143F
:1003E000F70DF80DF90DFA0DCA0BC8294608800063
:1003F000840A47088000840A48088000840A490863
:10040000800008000408B6003508B8000319212A46
:100410003408C1003308C0003208BF003108BE00F4
:10042000C501C4012030C3008230C200FF207A0819
:10043000B4007908B3007808B2007708B100B80BAF
:10044000082A3408C1003308C0003208BF00310850
:10045000BE003E08B63CBE00FA013F08C200BF170E
:100460000310BF0CC00CC10CFA0CF90CF80CF70C03
:10047000BE0B302AC21F472AF709F809F909FA0901
:10048000F70A0319F80A0319F90A0319FA0A7A088C
:10049000B4007908B3007808B2007708B100B41F3F
:1004A0005E2AB603B616B109B209B309B409B10A96
:1004B0000319B20A0319B30A0319B40A3B30BD0089
:1004C0009A30BC00CA30BB00BA010A30B800350807
:1004D0000319B60A83143130840083133408C10031
:1004E0003308C0003208BF003108BE003D08C50017
:1004F0003C08C4003B08C3003A08C200B321780896
:10050000F708031D962A350A38020319962A360879
:100510000319982A0F3938020319902A0318CC2A94
:10052000B61BCC2A361B982A2030C72A2030B605A5
:10053000B61EA72AB6123508031DB6037708B60003
:100540002D300C1EA12A99003608F700B601350897
:100550003802031DB62A7708B6002E300C1EAE2ACC
:1005600099003608F7002030B60500303030B61E4E
:10057000C72AB6123508031DB6037708B6002D301A
:100580000C1EC02A99003608F700B6013030F70774
:1005900077080C1EC92A990083103D08C1003C0849
:1005A000C0003B08BF003A08BE00C501C401C3013A
:1005B0000A30C200B3217A08BD007908BC0078086F
:1005C000BB007708BA00B80B6A2A8A110A121D2CE0
:1005D0000B08B1008B13831603178C170C14000043
:1005E000000083120313B11B8B1703170C087F390C
:1005F00003193E2B0313B10003170D080313B200B8
:1006000003170F080313B30031080C1E052B9900C4
:10061000320803178D000313330803178F000313E9
:100620000B08B4008B13831603178C170C140000EF
:10063000000083120313B41B8B1703170C0D0E0D50
:100640007F3903193E2B0313B10003170D08031361
:10065000B20003170F080313B30031080C1E2E2B32
:100660009900320803178D000313330803178F0016
:100670008D0A03198F0A0313E82A031703130800CE
:1006800031308400831300080319542B0130F80023
:10069000F701F70B492BF80B482B4A30F700F70B03
:1006A0004F2B522B800B462B8A110A12762C0308F3
:1006B0001F398300193083169900A63098009030B6
:1006C00083129800AD01AC018030AB007F30AA00EE
:1006D000FF30B00083161F149F141F159F110730A1
:1006E0009C0083138312A001A101853090007C300F
:1006F000AE000130AF002F02F800780DF700F70DC3
:10070000F70DF830F7057708053892002E088316A4
:10071000920083123011300883168700831207116C
:100720000C30970083168610831286140230F7006F
:10073000F70B982B9B2B00008316861083128610D4
:10074000831606148312061CA02B8E018F018E01C6
:100750008316061483120618A82B0F08FA000E0839
:10076000F7000F087A02031DAD2B7708B1007A0855
:10077000B20014287A08A9007908A8007808A70010
:100780007708A6002908B4002808B3002708B2009B
:100790002608B100B801B701B6018030B500332892
:1007A0007A08B4007908B3007808B2007708B1007D
:1007B0007A08C1007908C0007808BF007708BE0039
:1007C0002830C5007E30C4000C30C3007A30C2002F
:1007D000FF207A08A5007908A4007808A30077080C
:1007E000A2002D08B4002C08B3002B08B2002A0880
:1007F000B1002508B8002408B7002308B600220875
:10080000B50074210319732C2508AD002408AC0031
:100810002308AB002208AA000D300C1E0D2C9900F5
:10082000893084002D08B4002C08B3002B08B200D6
:100830002A08B1000230B500022A0A300C1E1E2C14
:1008400099002D08B4002C08B3002B08B2002A0828
:10085000B1007B30B8001430B7004730B6008530A7
:10086000B50074210318362C031D4F2CB401B301BD
:10087000B2018130B1002D08B8002C08B7002B0858
:10088000B6002A08B50074210318482C031D4F2C0C
:10089000FF3095001708CF3930389700732C7B3024
:1008A000B4001430B3004730B2008530B1002D08D9
:1008B000B8002C08B7002B08B6002A08B500742130
:1008C000031C6B2C9501043003178D0000308F0042
:1008D0000313E822732C95010C3003178D000030B0
:1008E0008F000313E8229630B100402B922B630057
:02400E00713F00
:00000001FF
;PIC16F877A
;CRC=539E  CREATED="04-dic.-21 15:43"
